:020000040800F2
:10000000680400209901000827120008C1100008A8
:1000100025120008A502000839150008000000009C
:100020000000000000000000000000002B1200088B
:10003000A702000800000000291200082D12000885
:10004000B3010008B3010008B3010008B3010008C0
:10005000B3010008B3010008B3010008B3010008B0
:10006000B3010008B3010008B3010008B3010008A0
:10007000B3010008B3010008B3010008B301000890
:10008000B3010008B3010008B3010008B301000880
:10009000B3010008B3010008B3010008B301000870
:1000A000B3010008B3010008B3010008B301000860
:1000B000B3010008B3010008B3010008B301000850
:1000C000B3010008B3010008B3010008B301000840
:1000D000B3010008B30100082D150008B3010008A2
:1000E000B3010008B3010008B3010008B301000820
:1000F000B3010008B3010008B3010008B301000810
:10010000B3010008B3010008B3010008B3010008FF
:10011000B3010008B3010008B3010008B3010008EF
:10012000B3010008B3010008B3010008B3010008DF
:10013000B30100080000000000000000B301000847
:10014000B3010008B3010008B3010008B3010008BF
:10015000B3010008B3010008B3010008B3010008AF
:10016000B3010008B3010008B3010008B30100089F
:10017000B3010008B3010008000000000000000007
:10018000B3010008DFF80CD000F07AF8004800470F
:100190007915000868040020064880470648004793
:1001A000FEE7FEE7FEE7FEE7FEE7FEE7FEE7FEE727
:1001B000FEE7FEE773120008850100082DE9F05FF5
:1001C0000546002092469B468846064681464024C6
:1001D0001BE0284641464746224600F041F8534678
:1001E0005A46C01A914110D311461846224600F0D3
:1001F00028F82D1A67EB01084F46224601200021FE
:1002000000F01FF817EB00094E41201EA4F1010475
:10021000DFDC484631462A464346BDE8F09FD2B26D
:1002200001E000F8012B491EFBD270470022F6E7DF
:1002300010B513460A4604461946FFF7F0FF20465C
:1002400010BD202A04DB203A00FA02F1002070479A
:100250009140C2F1200320FA03F319439040704704
:10026000202A04DB203A21FA02F00021704721FA0B
:1002700002F3D040C2F12002914008431946704772
:10028000064C074D06E0E06840F0010394E80700E3
:1002900098471034AC42F6D3FFF778FFBC1600083D
:1002A000DC160008FEE770472DE9F0410446876D33
:1002B00000F0A0F9064694F835000025022806D083
:1002C0008020606584F834500120BDE8F08120680A
:1002D000016821F0160101602068416921F0800168
:1002E0004161206C08B9A06C20B12068016821F040
:1002F000080101602068016821F0010101600CE043
:1003000000F078F9801B052807D9202060650320BC
:1003100084F8350084F83450D7E720680068C007B7
:10032000EED194F85C103F208840B860012084F83A
:10033000350084F834500020C7E790F835100229C2
:1003400003D08021416501207047052180F83510D8
:100350000068016821F00101016000207047000081
:100360002DE9F04FDFF85092002309F1040A01262D
:1003700003250AF1040B85B00F270BF1040E12E1DF
:10038000224606FA03F422407ED091F804C00CF015
:10039000030CBCF1010F02D0BCF1020F26D1D0F842
:1003A0000880CDF800804FEA430805FA08FCCDF834
:1003B0001080DDF8008028EA0C08CDF80080D1F824
:1003C0000CC0DDF810800CFA08FCDDF800804CEA67
:1003D000080CC0F808C0D0F804C02CEA040C0C7952
:1003E000C4F300149C4044EA0C0444600C79E443D8
:1003F000A40712D0C4684FEA430CCDF808C005FA30
:100400000CFC24EA0C04D1F80880DDF808C008FAD6
:100410000CF848EA0408C0F80C800C7904F00304D6
:10042000022C16D1DC0800EB840CCDF808C0DCF8F7
:1004300020C05C074FEAD46807FA08F42CEA040CE1
:100440000C6904FA08F444EA0C04DDF808C0CCF89E
:10045000204004684FEA430805FA08FC24EA0C042B
:1004600091F804C00CF0030C0CFA08FC4CEA040CE4
:10047000C0F800C04C6814F4403F05D04F4CD4F88D
:1004800000C04CF4804C00E08CE0C4F800C024684C
:1004900023F0030C04F480440094494C6444029417
:1004A000D4F808484FEA837C4FEA1C7807FA08FC26
:1004B00024EA0C04DFF80CC1604502D14FF0000CB7
:1004C00039E0DFF804C1604502D14FF0010C32E0A1
:1004D000DFF8F8C0604502D14FF0020C2BE0DFF8E6
:1004E000F0C0604502D14FF0030C24E0DFF8E4C017
:1004F000604502D14FF0040C1DE0DFF8DCC0604520
:1005000002D14FF0050C16E0DFF8D0C0604502D1F3
:100510004FF0060C0FE0DFF8C8C0604502D14FF085
:10052000070C08E0DFF8BCC0604502D14FF0080CB2
:1005300001E04FF0090C0CFA08FC4CEA040C029C98
:10054000C4F808C8D9F80040CC46D1F804809443D8
:100550005FEAC83800D51443CCF80040DAF8004010
:10056000D446D1F8048094435FEA883800D5144318
:10057000CCF80040DBF80040DC46D1F8048094431E
:100580005FEAC82800D51443CCF80040DEF80040EC
:10059000F446D1F8048094435FEA882800D51443D8
:1005A000CCF800405B1C0A681446DA407FF4E8AEE1
:1005B00005B0BDE8F08F0000003C01404438024027
:1005C00000300140000002400004024000080240E8
:1005D000000C0240001002400014024000180240CB
:1005E000001C0240002002400AB1816170470904EA
:1005F000FBE700000148806870470000040000200D
:10060000024881680278114481607047040000202C
:100610000B4810B5016841F400710160016841F4B4
:1006200080610160016841F480710160032000F085
:100630006FF8002000F006F800F024F8002010BD4C
:10064000003C024070B50D4D04464FF47A71287895
:10065000B1FBF0F00A490968B1FBF0F000F006FBCD
:1006600048B9102C07D200222146501E00F030F865
:1006700000206C6070BD012070BD000004000020EF
:10068000100000200A4808B5016841F4804101606B
:10069000006800F4804000900548001F016841F0A8
:1006A00080510160006800F08050009008BD00009B
:1006B00044380240002809DB00F01F02012191406C
:1006C0004009800000F1E020C0F8001170470000F0
:1006D000F0B40E4B1B680C46C3F30223C3F10705AD
:1006E000042D00D90425191D072901D2002300E09B
:1006F000DB1E012606FA05F1491E214099409E4065
:10070000761E16403143F0BC00F017BF0CED00E040
:10071000064900F0070208684FF6FF03184040EA58
:100720000220034A10430860704700000CED00E00F
:100730000000FA052DE9F0470E46050063D0DFF80A
:100740001C81D8F80000F7B200F00F00B04207D2C9
:1007500088F80070D8F8000000F00F00B04252D1C5
:1007600028683F4C810712D5400703D5206840F424
:10077000E05020602878000703D5206840F46040EE
:1007800020602068A96820F0F000084320602878E5
:10079000C0072BD0324968680839012810D0096891
:1007A000022810D0890700292DDA216821F00301E1
:1007B00001432160FFF71EFF814641F2883A0EE0B7
:1007C00009688903EFE78901EDE700BFFFF712FF32
:1007D000A0EB0901514502D90320BDE8F08720684C
:1007E000696800F00C00B0EB810FEFD1D8F8001071
:1007F000404601F00F01B14207D90770006800F0D0
:100800000F00B04201D00120E7E72878400705D566
:100810002068E96820F4E050084320602878000749
:1008200006D52068296920F4604040EAC1002060B4
:1008300000F04EF82168F02292FAA2F201F0F001E5
:10084000B2FA82F2D140074A515CC84006490860BA
:1008500006480068FFF7F6FE0020BEE7003C0240B5
:1008600008380240A41600081000002008000020EC
:1008700008480949006809684FF4E05292FAA2F268
:1008800001F4E051B2FA82F2D140044A515CC8400E
:10089000704700001000002008380240B41600081D
:1008A00008480949006809684FF4604292FAA2F2C8
:1008B00001F46041B2FA82F2D140044A515CC8406E
:1008C000704700001000002008380240B4160008ED
:1008D000154810B5006810F00C02144813D01449E4
:1008E000042A0FD0082A0ED10F4C241F2268236837
:1008F00002F03F025B0207D52068C0F38810A0FB1E
:10090000010106E0084610BD2168C1F38811A1FB72
:1009100000010023FFF752FC2168C1F30141491C8B
:100920004900B0FBF1F010BD083802400024F4008B
:1009300040787D012DE9F84F04007BD0DFF814B337
:100940002078ABF10406C007A6F1040536D0DBF829
:1009500000105846C1F38101012907D00068C0F397
:100960008100022809D13068400206D5286880033A
:1009700024D560680028E0D020E0B6492079891F9E
:100980000870606868B1FFF735FE074605E000BFF4
:10099000FFF730FEC01B642876D828688003F7D59F
:1009A0000CE0FFF727FE074605E000BFFFF722FE39
:1009B000C01B6428F0D828688003F7D42078DFF8BB
:1009C000988280074FF0000944D5DBF800105846A4
:1009D00011F00C0F4FF0F80A07D00068C0F3810047
:1009E000022809D13068400206D42868800715D54E
:1009F000E06801281ED111E0E068E0B10120C8F8EC
:100A00000000FFF7F7FD074605E000BFFFF7F2FD26
:100A1000C01B0228C0D828688007F7D528689AFA32
:100A2000AAF22169B2FA82F220F0F800914008435C
:100A300028600FE00AE1C8F80090FFF7DBFD0746E9
:100A400005E000BFFFF7D6FDC01B02281CD82868B0
:100A50008007F7D42078000727D5DFF8F8A17F4872
:100A600061690AF16C0A81B101210160FFF7C2FDE1
:100A7000074604E0FFF7BEFDC01B022804D8DAF8E1
:100A800000008007F6D510E082E0C0F80090FFF784
:100A9000B1FD074605E000BFFFF7ACFDC01B022813
:100AA00076D8DAF800008007F6D4207840075FD5C2
:100AB000DFF8A0A100270AF1380ADAF80000C00028
:100AC0000BD4DAF8001041F08051CAF80010DAF8BF
:100AD0000000012700F0805000906148016841F457
:100AE000807101600168C90512D4016841F4807108
:100AF0000160FFF77FFD009006E000BFFFF77AFD81
:100B00000099401A02287ED855480068C005F5D5DE
:100B10005049207A68310870A06888B1FFF76AFDF3
:100B2000009007E0FFF766FD0099411A41F2883016
:100B3000814268D84748683000688007F2D510E0E5
:100B4000FFF758FD009007E0FFF754FD0099411AA8
:100B500041F28830814256D83E48683000688007AC
:100B6000F2D42FB1DAF8001021F08051CAF8001049
:100B7000A069B8B3DBF80010C1F38101022949D0A4
:100B80000228C8F8609004D0FFF734FD04463DE029
:100B900039E0FFF72FFD074605E000BFFFF72AFD0C
:100BA000C01B64282FD828688001F7D4D4E9070136
:100BB0000843616A94F82C20890141EA02610843E4
:100BC000A16A284A490802EB014108433168264AD4
:100BD0001140084330600120C8F86000FFF70AFDAB
:100BE000044606E034E000BFFFF704FD001B642864
:100BF00009D828688001F7D52AE000BFFFF7FAFC82
:100C0000001B642802D90320BDE8F88F2868800102
:100C1000F4D41DE00128F7D03068E26900F48001C7
:100C2000914213D1226A00F03F0191420ED1616AD4
:100C3000C0F38812914209D1A26A00F44031914276
:100C400004D1E16A00F07060884201D00120DBE746
:100C50000020D9E70838024000004742800E474292
:100C6000007000400000FFFF0080BCF010B5401E87
:100C7000B0F1807F01D3012010BD4FF0E02460610E
:100C80000F21601700F059FC0020A06107202061AF
:100C9000002010BD70477047F8B502680446106820
:100CA000D168536910F00F0F4FF0000554D003F0D6
:100CB000010601F4907737435FD0C20705D0CA051B
:100CC00003D5226C42F001022264420705D5DA07FF
:100CD00003D0226C42F002022264820705D5DA07B3
:100CE00003D0226C42F004022264020707D501F00F
:100CF0002002324303D0226C42F008022264226CAC
:100D0000002A35D0800604D5880602D5204600F09A
:100D1000D1FA20684069216CC0F3801001F008010D
:100D20000143204625D000F0ADFA2068416949060C
:100D30001BD5416921F040014161A06BA8B159491F
:100D40000165A06BFFF7F9FA002811D0A06B016DC7
:100D500001B0BDE8F040084783060ED58B060CD5E0
:100D60002046BDE8F84000F0A5BA2046FFF793FF03
:100D7000F8BDFFF790FF2564F8BD266B2023012EF8
:100D800053D1C60651D5CE064FD510685068009095
:100D9000506940062BD5A16B086840680004000C20
:100DA000EAD0A68D8642E7D9E085C869B0F5807F94
:100DB00018D0D06820F48070D0602068416921F09C
:100DC000010141612068416921F04001416184F8DD
:100DD0003E3025632068C16821F01001C160A06B1E
:100DE000FFF762FAA08DE18D401A81B219E0A08D63
:100DF000E18D401A81B2E08D0028BDD00029BBD022
:100E0000D06820F49070D0602068426922F001021E
:100E1000426184F83E3025632068C26822F01002E7
:100E2000C2602046FFF736FFF8BD05062BD50D063C
:100E300029D594F83D002128F6D1A068B0F5805F4F
:100E400001D12069B0B1206A411C2162216800787B
:100E50004860E08C401E0004000CE084E4D120686F
:100E6000C16821F08001C1602068C16841F0400183
:100E7000C160F8BD206A0088C0F308005060206A95
:100E8000801C2062E5E74006F3D54806F1D5D1681D
:100E9000204621F04001D16084F83D3000F00FF988
:100EA000F8BD00007512000870B5040004D094F875
:100EB0003D00002510B106E0012070BD84F83C50D3
:100EC000204600F023F8242084F83D002068C16803
:100ED00021F40051C160204600F048FA2068016901
:100EE00021F4904101612068416921F02A014161AA
:100EF0002068C16841F40051C1602564202084F855
:100F00003D0084F83E00002070BD000010B586B0A2
:100F1000044614216846FFF789F91749206888427A
:100F200028D116480021026842F4003202600068AD
:100F300000F40030059011481038026842F00102B8
:100F40000260006800F0010005900C200090022073
:100F5000CDE9010103200390072004906946084869
:100F6000FFF7FEF9002211462620FFF7B1FB2620ED
:100F7000FFF7A0FB06B010BD00440040403802401F
:100F80000000024090F83E30202B0ED159B152B1F2
:100F900090F83C30012B08D0012380F83C3000232E
:100FA000036300F075BA012070470220704700000B
:100FB00010B500681249884220D1124801787E2974
:100FC0000AD04278521C42700F4A4078104400F810
:100FD000011C0A2903D009E00021417006E00A49FA
:100FE00064230F2201F1100000F010F806480122DE
:100FF000BDE8104003491030FFF7C4BF10BD00002A
:101000000044004000000020140000202DE9F843B7
:10101000044690F83D001F4616460D4620284CD148
:10102000C5B1BEB194F83C00012846D0012084F837
:101030003C004FF00008C4F84080212084F83D00B7
:10104000FFF7D8FAA6848146E684A068B0F5805FF1
:1010500003D004E00120BDE8F883206928B12E46C2
:101060005FF0000584F83C800EE00026FAE780215E
:10107000204600F028FAA0B9AEB116F8010B21689D
:101080004860E08C401EE084E08C4B464FF000024C
:1010900000970028EBD14FF04001204600F013FAF2
:1010A00030B10320D7E735F8020BC0F30800E6E7BC
:1010B000202084F83D000020CDE70220CBE77047D8
:1010C000FEE700002DE9F04F87B014216846FFF7D6
:1010D000ADF84D480024016841F01001016001683D
:1010E00001F010010591016841F0040101600168FF
:1010F00001F004010591016841F08001016001687F
:1011000001F080010591016841F001010160016871
:1011100001F001010591016841F0020101600168DF
:1011200001F002010591016841F0080101600068C9
:10113000DFF8D89000F00800059000228021484692
:10114000FFF752FADFF8C8A0002205215046FFF74A
:101150004BFADFF8C0B04FF4786800224146584699
:10116000FFF742FA4FF27F000325CDE900056946FB
:1011700002945846FFF7F4F84FF6FF770097CDE951
:10118000015469462448FFF7EBF80095CDE9015476
:1011900069462248FFF7E4F849F67370CDE9000587
:1011A000694602944846FFF7DBF88020009001264C
:1011B000CDE90164694648460394FFF7D1F805205C
:1011C0000090CDE90164694650460394FFF7C8F8E2
:1011D000781FCDE90005694602945046FFF7C0F834
:1011E000CDF80080CDE90164694658460394FFF7C5
:1011F000B7F80097CDE9015469460948FFF7B0F800
:1012000007B0BDE8F08F0000303802400000024017
:10121000000402400010024000080240001C02408E
:10122000000C0240FEE7704770477047FFF7E8B9CF
:1012300010B592B030216846FEF7F8FF14210CA8D3
:10124000FEF7F4FF022000900120039010200024FC
:10125000049006946846FFF76DFB0F20CDE90C045F
:101260000E940F9400210CA81094FFF763FA12B0AB
:1012700010BD704710B5806B0021C185C184FFF798
:101280000AFD10BD0168CA6822F49072CA60016844
:101290004A6922F001024A61016B012904D1016807
:1012A000CA6822F01002CA60202180F83E10002196
:1012B0000163704708B590F83E10222901D0022042
:1012C00008BD82684FF480539A4201D1016921B16F
:1012D000816A9A421BD04AB10AE00268816A526868
:1012E000C2F308020A80816A891C08E0026972B1AF
:1012F0000268526802F07F020A70816A491C8162AA
:10130000C18D491E0904090CC18503D019E002688A
:101310005268F1E70168CA6822F02002CA600168D9
:10132000CA6822F48072CA6001684A6922F0010228
:101330004A61202180F83E10016B012903D0FFF79C
:1013400037FE002008BD002101630168CA6822F051
:101350001002CA6001680A68D20602D50A684968A4
:101360000091818DFFF796FCEBE700002DE9F0413D
:10137000044600680169E26821F4405111430161AB
:101380002169A068E2690843616911432268084342
:10139000D16849F20C6399430143D16020684169E7
:1013A000A26921F4407111434161374920688842A4
:1013B00002D03649884202D1FFF772FA01E0FFF706
:1013C00057FA0246E36964203221B3F5004F02EB7D
:1013D000C20303EB021362682BD09200B3FBF2F559
:1013E000B5FBF0F5B3FBF2F66FF018077D4306EBA3
:1013F0008505B3FBF2F601EB0515B5FBF0F5B6FB81
:10140000F0F605F0F00505EB0615B3FBF2F6B3FBBD
:10141000F2F2B2FBF0F27A4306EB820201EB021128
:10142000B1FBF0F000F00F00216828448860BDE8AF
:10143000F0815200B3FBF2F6B6FBF0F6B3FBF2F725
:10144000B3FBF2F56FF0180C06FB0CF607EB860603
:1014500001EBC606B5FBF0F5B6FBF0F62D0106F084
:10146000F80605EB4605B3FBF2F6B3FBF2F2B2FB6E
:10147000F0F202FB0CF206EB820201EBC201B1FBBF
:10148000F0F000F00700CFE7001001400014014029
:1014900081628285C28500210164222280F83E207B
:1014A00080F83C100168CA6842F48072CA60016822
:1014B0004A6942F001024A610068C16841F02001B6
:1014C000C160002070472DE9F041984617460E464E
:1014D0000446069D1DE0681C1BD02DB1FFF78AF85D
:1014E000A0EB0800A84214D92068C16821F4D0718B
:1014F000C1602068416921F001014161202084F828
:101500003D0084F83E00002084F83C000320BDE844
:10151000F0812068006836EA000004D00020B8425C
:10152000D9D00020F3E70120F9E700000148FFF7D8
:10153000B3BB000024000020FEE70907090E0028C5
:1015400004DB00F1E02080F80014704700F00F0089
:1015500000F1E02080F8141D704702E008C8121F57
:1015600008C1002AFAD170477047002001E001C18C
:10157000121F002AFBD17047FFF74AF8FFF758FE09
:10158000FFF7A0FD424841490C2201604FF416517B
:10159000416000218160C160C0E904128161C161C4
:1015A000FFF782FC01223B493948FFF7EBFC3A4E3A
:1015B000012211463046FFF717F8012280213748F3
:1015C000FFF712F8012204213046FFF70DF8344DE1
:1015D000012280212846FFF707F801221402214644
:1015E0002846FFF701F84FF40078012241462846CB
:1015F000FEF7FAFF4FF48069012249462846FEF7BC
:10160000F3FF4FF4006A012251462846FEF7ECFF33
:10161000A3461F4C5746103C207801213038C2B2F7
:101620003046FEF7E1FF607880213038C2B21B48B7
:10163000FEF7DAFFA07804213038C2B23046FEF758
:10164000D3FFE07880213038C2B22846FEF7CCFFC5
:10165000207959463038C2B22846FEF7C5FF607976
:1016600041463038C2B22846FEF7BEFFA07949464F
:101670003038C2B22846FEF7B7FFE0793946303835
:10168000C2B22846FEF7B0FFC6E7000000440040A3
:10169000240000200000002000040240000002405E
:1016A00000100240000000000000000001020304DE
:1016B000060708090000000001020304DC16000808
:1016C00000000020140000005A150008F016000861
:1016D00014000020540400006A15000800000000F7
:1016E0000100000010000000000000000024F400D1
:040000050800018569
:00000001FF
